{
  "contractName": "orderBook",
  "abi": [
    {
      "inputs": [],
      "stateMutability": "nonpayable",
      "type": "constructor"
    },
    {
      "inputs": [
        {
          "internalType": "address",
          "name": "",
          "type": "address"
        }
      ],
      "name": "detail",
      "outputs": [
        {
          "internalType": "address",
          "name": "add",
          "type": "address"
        },
        {
          "internalType": "uint256",
          "name": "eng",
          "type": "uint256"
        }
      ],
      "stateMutability": "view",
      "type": "function",
      "constant": true
    },
    {
      "inputs": [],
      "name": "energy",
      "outputs": [
        {
          "internalType": "uint256",
          "name": "",
          "type": "uint256"
        }
      ],
      "stateMutability": "view",
      "type": "function",
      "constant": true
    },
    {
      "inputs": [],
      "name": "owner",
      "outputs": [
        {
          "internalType": "address",
          "name": "",
          "type": "address"
        }
      ],
      "stateMutability": "view",
      "type": "function",
      "constant": true
    },
    {
      "inputs": [
        {
          "internalType": "address",
          "name": "",
          "type": "address"
        }
      ],
      "name": "valid",
      "outputs": [
        {
          "internalType": "bool",
          "name": "",
          "type": "bool"
        }
      ],
      "stateMutability": "view",
      "type": "function",
      "constant": true
    },
    {
      "inputs": [],
      "name": "regCust",
      "outputs": [],
      "stateMutability": "nonpayable",
      "type": "function"
    },
    {
      "inputs": [],
      "name": "addEnergy",
      "outputs": [],
      "stateMutability": "nonpayable",
      "type": "function"
    },
    {
      "inputs": [],
      "name": "buy",
      "outputs": [],
      "stateMutability": "payable",
      "type": "function",
      "payable": true
    },
    {
      "inputs": [],
      "name": "customerInfo",
      "outputs": [],
      "stateMutability": "nonpayable",
      "type": "function"
    }
  ],
  "bytecode": "0x608060405234801561001057600080fd5b50336000806101000a81548173ffffffffffffffffffffffffffffffffffffffff021916908373ffffffffffffffffffffffffffffffffffffffff160217905550606460018190555061096f806100686000396000f3fe60806040526004361061007b5760003560e01c8063aa8492441161004e578063aa849244146100e3578063ac8a260c1461010e578063d4f9fe2f1461014b578063ec5b5932146101625761007b565b80633cf2060a146100805780636fa9ab10146100975780638da5cb5b146100ae578063a6f2ae3a146100d9575b600080fd5b34801561008c57600080fd5b506100956101a0565b005b3480156100a357600080fd5b506100ac610214565b005b3480156100ba57600080fd5b506100c3610398565b6040516100d09190610645565b60405180910390f35b6100e16103bc565b005b3480156100ef57600080fd5b506100f8610598565b6040516101059190610679565b60405180910390f35b34801561011a57600080fd5b50610135600480360381019061013091906106c5565b61059e565b604051610142919061070d565b60405180910390f35b34801561015757600080fd5b506101606105be565b005b34801561016e57600080fd5b50610189600480360381019061018491906106c5565b6105c0565b604051610197929190610728565b60405180910390f35b60008054906101000a900473ffffffffffffffffffffffffffffffffffffffff1673ffffffffffffffffffffffffffffffffffffffff163373ffffffffffffffffffffffffffffffffffffffff16146101f857600080fd5b60646001600082825461020b9190610780565b92505081905550565b6000600260003373ffffffffffffffffffffffffffffffffffffffff1673ffffffffffffffffffffffffffffffffffffffff16815260200190815260200160002060009054906101000a900460ff16905060001515811515146102ac576040517f08c379a00000000000000000000000000000000000000000000000000000000081526004016102a390610833565b60405180910390fd5b6000600360003373ffffffffffffffffffffffffffffffffffffffff1673ffffffffffffffffffffffffffffffffffffffff1681526020019081526020016000209050338160000160006101000a81548173ffffffffffffffffffffffffffffffffffffffff021916908373ffffffffffffffffffffffffffffffffffffffff160217905550600081600101819055506001600260003373ffffffffffffffffffffffffffffffffffffffff1673ffffffffffffffffffffffffffffffffffffffff16815260200190815260200160002060006101000a81548160ff0219169083151502179055505050565b60008054906101000a900473ffffffffffffffffffffffffffffffffffffffff1681565b6000600260003373ffffffffffffffffffffffffffffffffffffffff1673ffffffffffffffffffffffffffffffffffffffff16815260200190815260200160002060009054906101000a900460ff1690508061044d576040517f08c379a000000000000000000000000000000000000000000000000000000000815260040161044490610833565b60405180910390fd5b6000600360003373ffffffffffffffffffffffffffffffffffffffff1673ffffffffffffffffffffffffffffffffffffffff168152602001908152602001600020905060008060009054906101000a900473ffffffffffffffffffffffffffffffffffffffff1673ffffffffffffffffffffffffffffffffffffffff16346040516104d790610884565b60006040518083038185875af1925050503d8060008114610514576040519150601f19603f3d011682016040523d82523d6000602084013e610519565b606091505b505090508061055d576040517f08c379a0000000000000000000000000000000000000000000000000000000008152600401610554906108e5565b60405180910390fd5b600a8260010160008282546105729190610780565b92505081905550600a6001600082825461058c9190610905565b92505081905550505050565b60015481565b60026020528060005260406000206000915054906101000a900460ff1681565b565b60036020528060005260406000206000915090508060000160009054906101000a900473ffffffffffffffffffffffffffffffffffffffff16908060010154905082565b600073ffffffffffffffffffffffffffffffffffffffff82169050919050565b600061062f82610604565b9050919050565b61063f81610624565b82525050565b600060208201905061065a6000830184610636565b92915050565b6000819050919050565b61067381610660565b82525050565b600060208201905061068e600083018461066a565b92915050565b600080fd5b6106a281610624565b81146106ad57600080fd5b50565b6000813590506106bf81610699565b92915050565b6000602082840312156106db576106da610694565b5b60006106e9848285016106b0565b91505092915050565b60008115159050919050565b610707816106f2565b82525050565b600060208201905061072260008301846106fe565b92915050565b600060408201905061073d6000830185610636565b61074a602083018461066a565b9392505050565b7f4e487b7100000000000000000000000000000000000000000000000000000000600052601160045260246000fd5b600061078b82610660565b915061079683610660565b9250827fffffffffffffffffffffffffffffffffffffffffffffffffffffffffffffffff038211156107cb576107ca610751565b5b828201905092915050565b600082825260208201905092915050565b7f68657920616c7265616479207265670000000000000000000000000000000000600082015250565b600061081d600f836107d6565b9150610828826107e7565b602082019050919050565b6000602082019050818103600083015261084c81610810565b9050919050565b600081905092915050565b50565b600061086e600083610853565b91506108798261085e565b600082019050919050565b600061088f82610861565b9150819050919050565b7f6661696c65640000000000000000000000000000000000000000000000000000600082015250565b60006108cf6006836107d6565b91506108da82610899565b602082019050919050565b600060208201905081810360008301526108fe816108c2565b9050919050565b600061091082610660565b915061091b83610660565b92508282101561092e5761092d610751565b5b82820390509291505056fea26469706673582212204e28f09c1ebe0670809444495e0363fc9d3ce5403cde33fad706d3969a5c1b8164736f6c634300080d0033",
  "immutableReferences": {},
  "source": "// SPDX-License-Identifier: GPL-3.0\r\npragma solidity >=0.4.22 <0.9.0;\r\n\r\ncontract orderBook {\r\n      address public owner;\r\n\r\n  // energy of the owner\r\n  uint public energy;\r\n\r\n  constructor(){\r\n    owner=msg.sender;\r\n    energy=100;\r\n  }\r\n  struct customer{\r\n    address add;\r\n    uint eng;\r\n  }\r\n  mapping(address=>bool) public valid;\r\n  mapping(address=>customer) public detail;\r\n\r\n  function regCust() public {\r\n    bool v=valid[msg.sender];\r\n    require(v==false,\"hey already reg\");\r\n    customer storage cus=detail[msg.sender];\r\n    cus.add=msg.sender;\r\n    cus.eng=0;\r\n    valid[msg.sender]=true;\r\n  }\r\n\r\n  //adding 100 units enery every time by the owner\r\n  function addEnergy() public{\r\n    require(msg.sender==owner);\r\n    energy+=100;\r\n  }\r\n\r\n  function buy() public payable{\r\n       bool v=valid[msg.sender];\r\n       require(v,\"hey already reg\");\r\n       customer storage cus=detail[msg.sender];\r\n       (bool send, ) = owner.call{value: msg.value}(\"\");\r\n       require(send,\"failed\");\r\n       cus.eng+=10;\r\n       energy-=10;\r\n\r\n  }\r\n\r\n\r\n  function customerInfo() public{\r\n    \r\n  }\r\n}\r\n",
  "sourcePath": "C:\\Users\\Sonu Kumar\\Desktop\\insurance\\contracts\\orderBook.sol",
  "compiler": {
    "name": "solc",
    "version": "0.8.13+commit.abaa5c0e.Emscripten.clang"
  },
  "schemaVersion": "3.4.6",
  "updatedAt": "2022-04-19T20:20:19.709Z",
  "networkType": "ethereum",
  "devdoc": {
    "kind": "dev",
    "methods": {},
    "version": 1
  },
  "userdoc": {
    "kind": "user",
    "methods": {},
    "version": 1
  }
}