{
  "contractName": "registerMeter",
  "abi": [
    {
      "inputs": [],
      "stateMutability": "payable",
      "type": "constructor",
      "payable": true
    },
    {
      "inputs": [
        {
          "internalType": "uint256",
          "name": "",
          "type": "uint256"
        }
      ],
      "name": "registeredMeters",
      "outputs": [
        {
          "internalType": "address",
          "name": "",
          "type": "address"
        }
      ],
      "stateMutability": "view",
      "type": "function",
      "constant": true
    },
    {
      "inputs": [],
      "name": "register",
      "outputs": [],
      "stateMutability": "payable",
      "type": "function",
      "payable": true
    }
  ],
  "bytecode": "0x608060405261027d806100136000396000f3fe6080604052600436106100295760003560e01c80630df10d7d1461002e5780631aa3a0081461006b575b600080fd5b34801561003a57600080fd5b50610055600480360381019061005091906101be565b610075565b604051610062919061022c565b60405180910390f35b6100736100b4565b005b6001818154811061008557600080fd5b906000526020600020016000915054906101000a900473ffffffffffffffffffffffffffffffffffffffff1681565b662386f26fc1000034116100c757600080fd5b60016000803373ffffffffffffffffffffffffffffffffffffffff1673ffffffffffffffffffffffffffffffffffffffff16815260200190815260200160002060006101000a81548160ff0219169083151502179055506001339080600181540180825580915050600190039060005260206000200160009091909190916101000a81548173ffffffffffffffffffffffffffffffffffffffff021916908373ffffffffffffffffffffffffffffffffffffffff160217905550565b600080fd5b6000819050919050565b61019b81610188565b81146101a657600080fd5b50565b6000813590506101b881610192565b92915050565b6000602082840312156101d4576101d3610183565b5b60006101e2848285016101a9565b91505092915050565b600073ffffffffffffffffffffffffffffffffffffffff82169050919050565b6000610216826101eb565b9050919050565b6102268161020b565b82525050565b6000602082019050610241600083018461021d565b9291505056fea26469706673582212208a8331f30b2276306d237d00e158eacde8839609e8ab58a3dcae37165edb407964736f6c634300080d0033",
  "immutableReferences": {},
  "source": "// SPDX-License-Identifier: GPL-3.0\r\npragma solidity >=0.4.22 <0.9.0;\r\n\r\ncontract registerMeter {\r\n    mapping (address => bool) registeredMeter;\r\n    address[] public registeredMeters;\r\n\r\n    constructor() payable  {\r\n    }\r\n\r\n    function register() public payable{\r\n        require(msg.value > .01 ether);\r\n        registeredMeter[msg.sender] = true;\r\n        registeredMeters.push(msg.sender);\r\n    }\r\n\r\n    //modifier to ensure that only registered meters can cretae orders\r\n    modifier onlyRegisteredMeters {\r\n        require (registeredMeter[msg.sender] == true);\r\n        _;\r\n    }\r\n}\r\n",
  "sourcePath": "C:\\Users\\Sonu Kumar\\Desktop\\insurance\\contracts\\registerMeter.sol",
  "compiler": {
    "name": "solc",
    "version": "0.8.13+commit.abaa5c0e.Emscripten.clang"
  },
  "schemaVersion": "3.4.6",
  "updatedAt": "2022-04-18T16:27:32.993Z",
  "networkType": "ethereum",
  "devdoc": {
    "kind": "dev",
    "methods": {},
    "version": 1
  },
  "userdoc": {
    "kind": "user",
    "methods": {},
    "version": 1
  }
}